{
  "contractName": "HNYCrowdsale",
  "abi": [
    {
      "constant": true,
      "inputs": [],
      "name": "_cap",
      "outputs": [
        {
          "name": "",
          "type": "uint256"
        }
      ],
      "payable": false,
      "stateMutability": "view",
      "type": "function"
    },
    {
      "constant": true,
      "inputs": [],
      "name": "_team",
      "outputs": [
        {
          "name": "",
          "type": "address"
        }
      ],
      "payable": false,
      "stateMutability": "view",
      "type": "function"
    },
    {
      "constant": true,
      "inputs": [],
      "name": "_bounty",
      "outputs": [
        {
          "name": "",
          "type": "address"
        }
      ],
      "payable": false,
      "stateMutability": "view",
      "type": "function"
    },
    {
      "constant": true,
      "inputs": [],
      "name": "rate",
      "outputs": [
        {
          "name": "",
          "type": "uint256"
        }
      ],
      "payable": false,
      "stateMutability": "view",
      "type": "function"
    },
    {
      "constant": true,
      "inputs": [],
      "name": "endTime",
      "outputs": [
        {
          "name": "",
          "type": "uint256"
        }
      ],
      "payable": false,
      "stateMutability": "view",
      "type": "function"
    },
    {
      "constant": true,
      "inputs": [],
      "name": "cap",
      "outputs": [
        {
          "name": "",
          "type": "uint256"
        }
      ],
      "payable": false,
      "stateMutability": "view",
      "type": "function"
    },
    {
      "constant": true,
      "inputs": [],
      "name": "FOUNDATION_SHARE",
      "outputs": [
        {
          "name": "",
          "type": "uint256"
        }
      ],
      "payable": false,
      "stateMutability": "view",
      "type": "function"
    },
    {
      "constant": true,
      "inputs": [],
      "name": "weiRaised",
      "outputs": [
        {
          "name": "",
          "type": "uint256"
        }
      ],
      "payable": false,
      "stateMutability": "view",
      "type": "function"
    },
    {
      "constant": true,
      "inputs": [],
      "name": "_endTime",
      "outputs": [
        {
          "name": "",
          "type": "uint256"
        }
      ],
      "payable": false,
      "stateMutability": "view",
      "type": "function"
    },
    {
      "constant": true,
      "inputs": [],
      "name": "_reserve",
      "outputs": [
        {
          "name": "",
          "type": "address"
        }
      ],
      "payable": false,
      "stateMutability": "view",
      "type": "function"
    },
    {
      "constant": false,
      "inputs": [],
      "name": "finalize",
      "outputs": [],
      "payable": false,
      "stateMutability": "nonpayable",
      "type": "function"
    },
    {
      "constant": true,
      "inputs": [],
      "name": "wallet",
      "outputs": [
        {
          "name": "",
          "type": "address"
        }
      ],
      "payable": false,
      "stateMutability": "view",
      "type": "function"
    },
    {
      "constant": true,
      "inputs": [],
      "name": "_wallet",
      "outputs": [
        {
          "name": "",
          "type": "address"
        }
      ],
      "payable": false,
      "stateMutability": "view",
      "type": "function"
    },
    {
      "constant": true,
      "inputs": [],
      "name": "startTime",
      "outputs": [
        {
          "name": "",
          "type": "uint256"
        }
      ],
      "payable": false,
      "stateMutability": "view",
      "type": "function"
    },
    {
      "constant": true,
      "inputs": [],
      "name": "_rate",
      "outputs": [
        {
          "name": "",
          "type": "uint256"
        }
      ],
      "payable": false,
      "stateMutability": "view",
      "type": "function"
    },
    {
      "constant": true,
      "inputs": [
        {
          "name": "",
          "type": "address"
        }
      ],
      "name": "buyerRate",
      "outputs": [
        {
          "name": "",
          "type": "uint256"
        }
      ],
      "payable": false,
      "stateMutability": "view",
      "type": "function"
    },
    {
      "constant": true,
      "inputs": [],
      "name": "isFinalized",
      "outputs": [
        {
          "name": "",
          "type": "bool"
        }
      ],
      "payable": false,
      "stateMutability": "view",
      "type": "function"
    },
    {
      "constant": true,
      "inputs": [],
      "name": "owner",
      "outputs": [
        {
          "name": "",
          "type": "address"
        }
      ],
      "payable": false,
      "stateMutability": "view",
      "type": "function"
    },
    {
      "constant": true,
      "inputs": [],
      "name": "initialRate",
      "outputs": [
        {
          "name": "",
          "type": "uint256"
        }
      ],
      "payable": false,
      "stateMutability": "view",
      "type": "function"
    },
    {
      "constant": true,
      "inputs": [],
      "name": "TOTAL_SHARE",
      "outputs": [
        {
          "name": "",
          "type": "uint256"
        }
      ],
      "payable": false,
      "stateMutability": "view",
      "type": "function"
    },
    {
      "constant": true,
      "inputs": [],
      "name": "endRate",
      "outputs": [
        {
          "name": "",
          "type": "uint256"
        }
      ],
      "payable": false,
      "stateMutability": "view",
      "type": "function"
    },
    {
      "constant": true,
      "inputs": [],
      "name": "CROWDSALE_SHARE",
      "outputs": [
        {
          "name": "",
          "type": "uint256"
        }
      ],
      "payable": false,
      "stateMutability": "view",
      "type": "function"
    },
    {
      "constant": true,
      "inputs": [],
      "name": "hasEnded",
      "outputs": [
        {
          "name": "",
          "type": "bool"
        }
      ],
      "payable": false,
      "stateMutability": "view",
      "type": "function"
    },
    {
      "constant": false,
      "inputs": [
        {
          "name": "newOwner",
          "type": "address"
        }
      ],
      "name": "transferOwnership",
      "outputs": [],
      "payable": false,
      "stateMutability": "nonpayable",
      "type": "function"
    },
    {
      "constant": true,
      "inputs": [],
      "name": "_startTime",
      "outputs": [
        {
          "name": "",
          "type": "uint256"
        }
      ],
      "payable": false,
      "stateMutability": "view",
      "type": "function"
    },
    {
      "constant": true,
      "inputs": [],
      "name": "token",
      "outputs": [
        {
          "name": "",
          "type": "address"
        }
      ],
      "payable": false,
      "stateMutability": "view",
      "type": "function"
    },
    {
      "inputs": [],
      "payable": false,
      "stateMutability": "nonpayable",
      "type": "constructor"
    },
    {
      "payable": true,
      "stateMutability": "payable",
      "type": "fallback"
    },
    {
      "anonymous": false,
      "inputs": [
        {
          "indexed": false,
          "name": "wallet",
          "type": "address"
        }
      ],
      "name": "WalletChange",
      "type": "event"
    },
    {
      "anonymous": false,
      "inputs": [
        {
          "indexed": true,
          "name": "buyer",
          "type": "address"
        },
        {
          "indexed": false,
          "name": "rate",
          "type": "uint256"
        }
      ],
      "name": "PreferentialRateChange",
      "type": "event"
    },
    {
      "anonymous": false,
      "inputs": [
        {
          "indexed": false,
          "name": "rate",
          "type": "uint256"
        }
      ],
      "name": "InitialRateChange",
      "type": "event"
    },
    {
      "anonymous": false,
      "inputs": [
        {
          "indexed": false,
          "name": "rate",
          "type": "uint256"
        }
      ],
      "name": "EndRateChange",
      "type": "event"
    },
    {
      "anonymous": false,
      "inputs": [],
      "name": "Finalized",
      "type": "event"
    },
    {
      "anonymous": false,
      "inputs": [
        {
          "indexed": true,
          "name": "previousOwner",
          "type": "address"
        },
        {
          "indexed": true,
          "name": "newOwner",
          "type": "address"
        }
      ],
      "name": "OwnershipTransferred",
      "type": "event"
    },
    {
      "anonymous": false,
      "inputs": [
        {
          "indexed": true,
          "name": "purchaser",
          "type": "address"
        },
        {
          "indexed": true,
          "name": "beneficiary",
          "type": "address"
        },
        {
          "indexed": false,
          "name": "value",
          "type": "uint256"
        },
        {
          "indexed": false,
          "name": "amount",
          "type": "uint256"
        }
      ],
      "name": "TokenPurchase",
      "type": "event"
    },
    {
      "constant": false,
      "inputs": [
        {
          "name": "beneficiary",
          "type": "address"
        }
      ],
      "name": "buyTokens",
      "outputs": [],
      "payable": true,
      "stateMutability": "payable",
      "type": "function"
    },
    {
      "constant": false,
      "inputs": [],
      "name": "unpauseToken",
      "outputs": [],
      "payable": false,
      "stateMutability": "nonpayable",
      "type": "function"
    },
    {
      "constant": false,
      "inputs": [],
      "name": "pauseToken",
      "outputs": [],
      "payable": false,
      "stateMutability": "nonpayable",
      "type": "function"
    },
    {
      "constant": false,
      "inputs": [
        {
          "name": "buyer",
          "type": "address"
        },
        {
          "name": "rate",
          "type": "uint256"
        }
      ],
      "name": "setBuyerRate",
      "outputs": [],
      "payable": false,
      "stateMutability": "nonpayable",
      "type": "function"
    },
    {
      "constant": false,
      "inputs": [
        {
          "name": "rate",
          "type": "uint256"
        }
      ],
      "name": "setInitialRate",
      "outputs": [],
      "payable": false,
      "stateMutability": "nonpayable",
      "type": "function"
    },
    {
      "constant": false,
      "inputs": [
        {
          "name": "rate",
          "type": "uint256"
        }
      ],
      "name": "setEndRate",
      "outputs": [],
      "payable": false,
      "stateMutability": "nonpayable",
      "type": "function"
    },
    {
      "constant": false,
      "inputs": [
        {
          "name": "_wallet",
          "type": "address"
        }
      ],
      "name": "setWallet",
      "outputs": [],
      "payable": false,
      "stateMutability": "nonpayable",
      "type": "function"
    }
  ],
  "bytecode": "0x60606040526000600760146101000a81548160ff021916908315150217905550600060085560006009556000600a556000600b556000600c60006101000a81548173ffffffffffffffffffffffffffffffffffffffff021916908373ffffffffffffffffffffffffffffffffffffffff1602179055506000600d60006101000a81548173ffffffffffffffffffffffffffffffffffffffff021916908373ffffffffffffffffffffffffffffffffffffffff1602179055506000600e60006101000a81548173ffffffffffffffffffffffffffffffffffffffff021916908373ffffffffffffffffffffffffffffffffffffffff1602179055506000600f60006101000a81548173ffffffffffffffffffffffffffffffffffffffff021916908373ffffffffffffffffffffffffffffffffffffffff16021790555061025860105561012c60115534156200015357600080fd5b600b54600854600954600a54600c60009054906101000a900473ffffffffffffffffffffffffffffffffffffffff164284101515156200019257600080fd5b838310151515620001a257600080fd5b600082111515620001b257600080fd5b600073ffffffffffffffffffffffffffffffffffffffff168173ffffffffffffffffffffffffffffffffffffffff1614151515620001ef57600080fd5b6200020d6200039f6401000000000262001b41176401000000009004565b6000806101000a81548173ffffffffffffffffffffffffffffffffffffffff021916908373ffffffffffffffffffffffffffffffffffffffff16021790555083600181905550826002819055508160048190555080600360006101000a81548173ffffffffffffffffffffffffffffffffffffffff021916908373ffffffffffffffffffffffffffffffffffffffff16021790555050505050600081111515620002b657600080fd5b806006819055505033600760006101000a81548173ffffffffffffffffffffffffffffffffffffffff021916908373ffffffffffffffffffffffffffffffffffffffff1602179055506000809054906101000a900473ffffffffffffffffffffffffffffffffffffffff1673ffffffffffffffffffffffffffffffffffffffff16638456cb596040518163ffffffff167c0100000000000000000000000000000000000000000000000000000000028152600401600060405180830381600087803b15156200038457600080fd5b6102c65a03f115156200039657600080fd5b505050620003d8565b6000620003ab620003c7565b604051809103906000f0801515620003c257600080fd5b905090565b604051611b0d8062003a9783390190565b6136af80620003e86000396000f3006060604052600436106101a1576000357c0100000000000000000000000000000000000000000000000000000000900463ffffffff168063060cf4e8146101ac5780630ede0343146101d5578063196c99091461022a5780632c3496271461027f5780632c4e722e146102945780633197cbb6146102bd578063355274ea146102e65780633723f1491461030f5780634042b66f1461033857806340d4895814610361578063413ab4a81461038a578063467523fa146103df5780634bb278f31461042157806350669a0314610436578063521eb2731461044b578063610757e4146104a057806378e97925146104f557806383bebced1461051e5780638660b220146105475780638d4e4083146105945780638da5cb5b146105c15780639e51051f14610616578063abe3dfd11461063f578063bf41e16f14610662578063c505ebce1461068b578063d9719e56146106b4578063deaa59df146106dd578063dfb87be114610716578063ec8ac4d814610739578063ecb70fb714610767578063f2fde38b14610794578063fa1acb5c146107cd578063fc0c546a146107f6575b6101aa3361084b565b005b34156101b757600080fd5b6101bf610d93565b6040518082815260200191505060405180910390f35b34156101e057600080fd5b6101e8610d99565b604051808273ffffffffffffffffffffffffffffffffffffffff1673ffffffffffffffffffffffffffffffffffffffff16815260200191505060405180910390f35b341561023557600080fd5b61023d610dbf565b604051808273ffffffffffffffffffffffffffffffffffffffff1673ffffffffffffffffffffffffffffffffffffffff16815260200191505060405180910390f35b341561028a57600080fd5b610292610de5565b005b341561029f57600080fd5b6102a7610edb565b6040518082815260200191505060405180910390f35b34156102c857600080fd5b6102d0610ee1565b6040518082815260200191505060405180910390f35b34156102f157600080fd5b6102f9610ee7565b6040518082815260200191505060405180910390f35b341561031a57600080fd5b610322610eed565b6040518082815260200191505060405180910390f35b341561034357600080fd5b61034b610ef2565b6040518082815260200191505060405180910390f35b341561036c57600080fd5b610374610ef8565b6040518082815260200191505060405180910390f35b341561039557600080fd5b61039d610efe565b604051808273ffffffffffffffffffffffffffffffffffffffff1673ffffffffffffffffffffffffffffffffffffffff16815260200191505060405180910390f35b34156103ea57600080fd5b61041f600480803573ffffffffffffffffffffffffffffffffffffffff16906020019091908035906020019091905050610f24565b005b341561042c57600080fd5b610434611026565b005b341561044157600080fd5b610449611102565b005b341561045657600080fd5b61045e6111f8565b604051808273ffffffffffffffffffffffffffffffffffffffff1673ffffffffffffffffffffffffffffffffffffffff16815260200191505060405180910390f35b34156104ab57600080fd5b6104b361121e565b604051808273ffffffffffffffffffffffffffffffffffffffff1673ffffffffffffffffffffffffffffffffffffffff16815260200191505060405180910390f35b341561050057600080fd5b610508611244565b6040518082815260200191505060405180910390f35b341561052957600080fd5b61053161124a565b6040518082815260200191505060405180910390f35b341561055257600080fd5b61057e600480803573ffffffffffffffffffffffffffffffffffffffff16906020019091905050611250565b6040518082815260200191505060405180910390f35b341561059f57600080fd5b6105a7611268565b604051808215151515815260200191505060405180910390f35b34156105cc57600080fd5b6105d461127b565b604051808273ffffffffffffffffffffffffffffffffffffffff1673ffffffffffffffffffffffffffffffffffffffff16815260200191505060405180910390f35b341561062157600080fd5b6106296112a1565b6040518082815260200191505060405180910390f35b341561064a57600080fd5b61066060048080359060200190919050506112a7565b005b341561066d57600080fd5b610675611354565b6040518082815260200191505060405180910390f35b341561069657600080fd5b61069e611359565b6040518082815260200191505060405180910390f35b34156106bf57600080fd5b6106c761135f565b6040518082815260200191505060405180910390f35b34156106e857600080fd5b610714600480803573ffffffffffffffffffffffffffffffffffffffff16906020019091905050611364565b005b341561072157600080fd5b610737600480803590602001909190505061148d565b005b610765600480803573ffffffffffffffffffffffffffffffffffffffff1690602001909190505061084b565b005b341561077257600080fd5b61077a61153a565b604051808215151515815260200191505060405180910390f35b341561079f57600080fd5b6107cb600480803573ffffffffffffffffffffffffffffffffffffffff1690602001909190505061155d565b005b34156107d857600080fd5b6107e06116b5565b6040518082815260200191505060405180910390f35b341561080157600080fd5b6108096116bb565b604051808273ffffffffffffffffffffffffffffffffffffffff1673ffffffffffffffffffffffffffffffffffffffff16815260200191505060405180910390f35b6000806000806000808673ffffffffffffffffffffffffffffffffffffffff161415151561087857600080fd5b6108806116e0565b151561088b57600080fd5b349450610896611716565b6004819055506108b16004548661180790919063ffffffff16565b93506108c760328661180790919063ffffffff16565b92506108dd60648661180790919063ffffffff16565b91506108f360328661180790919063ffffffff16565b905061090a8560055461184290919063ffffffff16565b6005819055506000809054906101000a900473ffffffffffffffffffffffffffffffffffffffff1673ffffffffffffffffffffffffffffffffffffffff166340c10f1987866000604051602001526040518363ffffffff167c0100000000000000000000000000000000000000000000000000000000028152600401808373ffffffffffffffffffffffffffffffffffffffff1673ffffffffffffffffffffffffffffffffffffffff16815260200182815260200192505050602060405180830381600087803b15156109dc57600080fd5b6102c65a03f115156109ed57600080fd5b50505060405180519050506000809054906101000a900473ffffffffffffffffffffffffffffffffffffffff1673ffffffffffffffffffffffffffffffffffffffff166340c10f19600e60009054906101000a900473ffffffffffffffffffffffffffffffffffffffff16856000604051602001526040518363ffffffff167c0100000000000000000000000000000000000000000000000000000000028152600401808373ffffffffffffffffffffffffffffffffffffffff1673ffffffffffffffffffffffffffffffffffffffff16815260200182815260200192505050602060405180830381600087803b1515610ae657600080fd5b6102c65a03f11515610af757600080fd5b50505060405180519050506000809054906101000a900473ffffffffffffffffffffffffffffffffffffffff1673ffffffffffffffffffffffffffffffffffffffff166340c10f19600d60009054906101000a900473ffffffffffffffffffffffffffffffffffffffff16846000604051602001526040518363ffffffff167c0100000000000000000000000000000000000000000000000000000000028152600401808373ffffffffffffffffffffffffffffffffffffffff1673ffffffffffffffffffffffffffffffffffffffff16815260200182815260200192505050602060405180830381600087803b1515610bf057600080fd5b6102c65a03f11515610c0157600080fd5b50505060405180519050506000809054906101000a900473ffffffffffffffffffffffffffffffffffffffff1673ffffffffffffffffffffffffffffffffffffffff166340c10f19600f60009054906101000a900473ffffffffffffffffffffffffffffffffffffffff16836000604051602001526040518363ffffffff167c0100000000000000000000000000000000000000000000000000000000028152600401808373ffffffffffffffffffffffffffffffffffffffff1673ffffffffffffffffffffffffffffffffffffffff16815260200182815260200192505050602060405180830381600087803b1515610cfa57600080fd5b6102c65a03f11515610d0b57600080fd5b50505060405180519050508573ffffffffffffffffffffffffffffffffffffffff163373ffffffffffffffffffffffffffffffffffffffff167f623b3804fa71d67900d064613da8f94b9617215ee90799290593e1745087ad188787604051808381526020018281526020019250505060405180910390a3610d8b611860565b505050505050565b600b5481565b600d60009054906101000a900473ffffffffffffffffffffffffffffffffffffffff1681565b600e60009054906101000a900473ffffffffffffffffffffffffffffffffffffffff1681565b600760009054906101000a900473ffffffffffffffffffffffffffffffffffffffff1673ffffffffffffffffffffffffffffffffffffffff163373ffffffffffffffffffffffffffffffffffffffff16141515610e4157600080fd5b6000809054906101000a900473ffffffffffffffffffffffffffffffffffffffff1673ffffffffffffffffffffffffffffffffffffffff16638456cb596040518163ffffffff167c0100000000000000000000000000000000000000000000000000000000028152600401600060405180830381600087803b1515610ec557600080fd5b6102c65a03f11515610ed657600080fd5b505050565b60045481565b60025481565b60065481565b603c81565b60055481565b60095481565b600f60009054906101000a900473ffffffffffffffffffffffffffffffffffffffff1681565b600760009054906101000a900473ffffffffffffffffffffffffffffffffffffffff1673ffffffffffffffffffffffffffffffffffffffff163373ffffffffffffffffffffffffffffffffffffffff16141515610f8057600080fd5b60008114151515610f9057600080fd5b80601260008473ffffffffffffffffffffffffffffffffffffffff1673ffffffffffffffffffffffffffffffffffffffff168152602001908152602001600020819055508173ffffffffffffffffffffffffffffffffffffffff167f0f3ae419c756d7584b97a00ed889018a8f499d13dcdac1c7b3a95c7ca1f37f66826040518082815260200191505060405180910390a25050565b600760009054906101000a900473ffffffffffffffffffffffffffffffffffffffff1673ffffffffffffffffffffffffffffffffffffffff163373ffffffffffffffffffffffffffffffffffffffff1614151561108257600080fd5b600760149054906101000a900460ff1615151561109e57600080fd5b6110a661153a565b15156110b157600080fd5b6110b96118c4565b7f6823b073d48d6e3a7d385eeb601452d680e74bb46afe3255a7d778f3a9b1768160405160405180910390a16001600760146101000a81548160ff021916908315150217905550565b600760009054906101000a900473ffffffffffffffffffffffffffffffffffffffff1673ffffffffffffffffffffffffffffffffffffffff163373ffffffffffffffffffffffffffffffffffffffff1614151561115e57600080fd5b6000809054906101000a900473ffffffffffffffffffffffffffffffffffffffff1673ffffffffffffffffffffffffffffffffffffffff16633f4ba83a6040518163ffffffff167c0100000000000000000000000000000000000000000000000000000000028152600401600060405180830381600087803b15156111e257600080fd5b6102c65a03f115156111f357600080fd5b505050565b600360009054906101000a900473ffffffffffffffffffffffffffffffffffffffff1681565b600c60009054906101000a900473ffffffffffffffffffffffffffffffffffffffff1681565b60015481565b600a5481565b60126020528060005260406000206000915090505481565b600760149054906101000a900460ff1681565b600760009054906101000a900473ffffffffffffffffffffffffffffffffffffffff1681565b60105481565b600760009054906101000a900473ffffffffffffffffffffffffffffffffffffffff1673ffffffffffffffffffffffffffffffffffffffff163373ffffffffffffffffffffffffffffffffffffffff1614151561130357600080fd5b6000811415151561131357600080fd5b806010819055507f3148ac6288a0872fc7c29cb5374bddb5f87f89c836031267129f165a4c4c9b3e816040518082815260200191505060405180910390a150565b606481565b60115481565b602881565b600760009054906101000a900473ffffffffffffffffffffffffffffffffffffffff1673ffffffffffffffffffffffffffffffffffffffff163373ffffffffffffffffffffffffffffffffffffffff161415156113c057600080fd5b60008173ffffffffffffffffffffffffffffffffffffffff16141515156113e657600080fd5b80600360006101000a81548173ffffffffffffffffffffffffffffffffffffffff021916908373ffffffffffffffffffffffffffffffffffffffff1602179055507f3787b7480773021c225875ded0c374cfd0805e3061363fbbb447366e557c77a181604051808273ffffffffffffffffffffffffffffffffffffffff1673ffffffffffffffffffffffffffffffffffffffff16815260200191505060405180910390a150565b600760009054906101000a900473ffffffffffffffffffffffffffffffffffffffff1673ffffffffffffffffffffffffffffffffffffffff163373ffffffffffffffffffffffffffffffffffffffff161415156114e957600080fd5b600081141515156114f957600080fd5b806011819055507f34cbbef951e76a206451845af670e86419548f7a8a2fda19417ba9631fe2dc5d816040518082815260200191505060405180910390a150565b6000806006546005541015905080806115575750611556611ace565b5b91505090565b600760009054906101000a900473ffffffffffffffffffffffffffffffffffffffff1673ffffffffffffffffffffffffffffffffffffffff163373ffffffffffffffffffffffffffffffffffffffff161415156115b957600080fd5b600073ffffffffffffffffffffffffffffffffffffffff168173ffffffffffffffffffffffffffffffffffffffff16141515156115f557600080fd5b8073ffffffffffffffffffffffffffffffffffffffff16600760009054906101000a900473ffffffffffffffffffffffffffffffffffffffff1673ffffffffffffffffffffffffffffffffffffffff167f8be0079c531659141344cd1fd0a4f28419497f9722a3daafe3b4186f6b6457e060405160405180910390a380600760006101000a81548173ffffffffffffffffffffffffffffffffffffffff021916908373ffffffffffffffffffffffffffffffffffffffff16021790555050565b60085481565b6000809054906101000a900473ffffffffffffffffffffffffffffffffffffffff1681565b6000806006546116fb3460055461184290919063ffffffff16565b11159050808015611710575061170f611ada565b5b91505090565b6000806000806000601260003373ffffffffffffffffffffffffffffffffffffffff1673ffffffffffffffffffffffffffffffffffffffff168152602001908152602001600020541415156117ac57601260003373ffffffffffffffffffffffffffffffffffffffff1673ffffffffffffffffffffffffffffffffffffffff168152602001908152602001600020549350611801565b600154430392506011546010540391506001546002540390506117fe6117ed826117df868661180790919063ffffffff16565b611b0d90919063ffffffff16565b600454611b2890919063ffffffff16565b93505b50505090565b600080600084141561181c576000915061183b565b828402905082848281151561182d57fe5b0414151561183757fe5b8091505b5092915050565b600080828401905083811015151561185657fe5b8091505092915050565b600360009054906101000a900473ffffffffffffffffffffffffffffffffffffffff1673ffffffffffffffffffffffffffffffffffffffff166108fc349081150290604051600060405180830381858888f1935050505015156118c257600080fd5b565b6000806000809054906101000a900473ffffffffffffffffffffffffffffffffffffffff1673ffffffffffffffffffffffffffffffffffffffff166318160ddd6000604051602001526040518163ffffffff167c0100000000000000000000000000000000000000000000000000000000028152600401602060405180830381600087803b151561195457600080fd5b6102c65a03f1151561196557600080fd5b505050604051805190509150611998602861198a84606461180790919063ffffffff16565b611b0d90919063ffffffff16565b90506000809054906101000a900473ffffffffffffffffffffffffffffffffffffffff1673ffffffffffffffffffffffffffffffffffffffff166340c10f19600360009054906101000a900473ffffffffffffffffffffffffffffffffffffffff16611a216064611a1386603c61180790919063ffffffff16565b611b0d90919063ffffffff16565b6000604051602001526040518363ffffffff167c0100000000000000000000000000000000000000000000000000000000028152600401808373ffffffffffffffffffffffffffffffffffffffff1673ffffffffffffffffffffffffffffffffffffffff16815260200182815260200192505050602060405180830381600087803b1515611aae57600080fd5b6102c65a03f11515611abf57600080fd5b50505060405180519050505050565b60006002544211905090565b60008060006001544210158015611af357506002544211155b915060003414159050818015611b065750805b9250505090565b6000808284811515611b1b57fe5b0490508091505092915050565b6000828211151515611b3657fe5b818303905092915050565b6000611b4b611b66565b604051809103906000f0801515611b6157600080fd5b905090565b604051611b0d80611b7783390190560060606040526000600360146101000a81548160ff0219169083151502179055506000600360156101000a81548160ff02191690831515021790555033600360006101000a81548173ffffffffffffffffffffffffffffffffffffffff021916908373ffffffffffffffffffffffffffffffffffffffff160217905550611a838061008a6000396000f300606060405260043610610107576000357c0100000000000000000000000000000000000000000000000000000000900463ffffffff16806305d2035b1461010c57806306fdde0314610139578063095ea7b3146101c757806318160ddd1461022157806323b872dd1461024a578063313ce567146102c35780633f4ba83a146102f257806340c10f19146103075780635c975abb14610361578063661884631461038e57806370a08231146103e85780637d64bcb4146104355780638456cb59146104625780638da5cb5b1461047757806395d89b41146104cc578063a9059cbb1461055a578063d73dd623146105b4578063dd62ed3e1461060e578063f2fde38b1461067a575b600080fd5b341561011757600080fd5b61011f6106b3565b604051808215151515815260200191505060405180910390f35b341561014457600080fd5b61014c6106c6565b6040518080602001828103825283818151815260200191508051906020019080838360005b8381101561018c578082015181840152602081019050610171565b50505050905090810190601f1680156101b95780820380516001836020036101000a031916815260200191505b509250505060405180910390f35b34156101d257600080fd5b610207600480803573ffffffffffffffffffffffffffffffffffffffff169060200190919080359060200190919050506106ff565b604051808215151515815260200191505060405180910390f35b341561022c57600080fd5b61023461072f565b6040518082815260200191505060405180910390f35b341561025557600080fd5b6102a9600480803573ffffffffffffffffffffffffffffffffffffffff1690602001909190803573ffffffffffffffffffffffffffffffffffffffff16906020019091908035906020019091905050610739565b604051808215151515815260200191505060405180910390f35b34156102ce57600080fd5b6102d661076b565b604051808260ff1660ff16815260200191505060405180910390f35b34156102fd57600080fd5b610305610770565b005b341561031257600080fd5b610347600480803573ffffffffffffffffffffffffffffffffffffffff16906020019091908035906020019091905050610830565b604051808215151515815260200191505060405180910390f35b341561036c57600080fd5b610374610a16565b604051808215151515815260200191505060405180910390f35b341561039957600080fd5b6103ce600480803573ffffffffffffffffffffffffffffffffffffffff16906020019091908035906020019091905050610a29565b604051808215151515815260200191505060405180910390f35b34156103f357600080fd5b61041f600480803573ffffffffffffffffffffffffffffffffffffffff16906020019091905050610a59565b6040518082815260200191505060405180910390f35b341561044057600080fd5b610448610aa1565b604051808215151515815260200191505060405180910390f35b341561046d57600080fd5b610475610b69565b005b341561048257600080fd5b61048a610c2a565b604051808273ffffffffffffffffffffffffffffffffffffffff1673ffffffffffffffffffffffffffffffffffffffff16815260200191505060405180910390f35b34156104d757600080fd5b6104df610c50565b6040518080602001828103825283818151815260200191508051906020019080838360005b8381101561051f578082015181840152602081019050610504565b50505050905090810190601f16801561054c5780820380516001836020036101000a031916815260200191505b509250505060405180910390f35b341561056557600080fd5b61059a600480803573ffffffffffffffffffffffffffffffffffffffff16906020019091908035906020019091905050610c89565b604051808215151515815260200191505060405180910390f35b34156105bf57600080fd5b6105f4600480803573ffffffffffffffffffffffffffffffffffffffff16906020019091908035906020019091905050610cb9565b604051808215151515815260200191505060405180910390f35b341561061957600080fd5b610664600480803573ffffffffffffffffffffffffffffffffffffffff1690602001909190803573ffffffffffffffffffffffffffffffffffffffff16906020019091905050610ce9565b6040518082815260200191505060405180910390f35b341561068557600080fd5b6106b1600480803573ffffffffffffffffffffffffffffffffffffffff16906020019091905050610d70565b005b600360149054906101000a900460ff1681565b6040805190810160405280601281526020017f42697446656e636520484e5920546f6b656e000000000000000000000000000081525081565b6000600360159054906101000a900460ff1615151561071d57600080fd5b6107278383610ec8565b905092915050565b6000600154905090565b6000600360159054906101000a900460ff1615151561075757600080fd5b610762848484610fba565b90509392505050565b601281565b600360009054906101000a900473ffffffffffffffffffffffffffffffffffffffff1673ffffffffffffffffffffffffffffffffffffffff163373ffffffffffffffffffffffffffffffffffffffff161415156107cc57600080fd5b600360159054906101000a900460ff1615156107e757600080fd5b6000600360156101000a81548160ff0219169083151502179055507f7805862f689e2f13df9f062ff482ad3ad112aca9e0847911ed832e158c525b3360405160405180910390a1565b6000600360009054906101000a900473ffffffffffffffffffffffffffffffffffffffff1673ffffffffffffffffffffffffffffffffffffffff163373ffffffffffffffffffffffffffffffffffffffff1614151561088e57600080fd5b600360149054906101000a900460ff161515156108aa57600080fd5b6108bf8260015461137490919063ffffffff16565b600181905550610916826000808673ffffffffffffffffffffffffffffffffffffffff1673ffffffffffffffffffffffffffffffffffffffff1681526020019081526020016000205461137490919063ffffffff16565b6000808573ffffffffffffffffffffffffffffffffffffffff1673ffffffffffffffffffffffffffffffffffffffff168152602001908152602001600020819055508273ffffffffffffffffffffffffffffffffffffffff167f0f6798a560793a54c3bcfe86a93cde1e73087d944c0ea20544137d4121396885836040518082815260200191505060405180910390a28273ffffffffffffffffffffffffffffffffffffffff16600073ffffffffffffffffffffffffffffffffffffffff167fddf252ad1be2c89b69c2b068fc378daa952ba7f163c4a11628f55a4df523b3ef846040518082815260200191505060405180910390a36001905092915050565b600360159054906101000a900460ff1681565b6000600360159054906101000a900460ff16151515610a4757600080fd5b610a518383611392565b905092915050565b60008060008373ffffffffffffffffffffffffffffffffffffffff1673ffffffffffffffffffffffffffffffffffffffff168152602001908152602001600020549050919050565b6000600360009054906101000a900473ffffffffffffffffffffffffffffffffffffffff1673ffffffffffffffffffffffffffffffffffffffff163373ffffffffffffffffffffffffffffffffffffffff16141515610aff57600080fd5b600360149054906101000a900460ff16151515610b1b57600080fd5b6001600360146101000a81548160ff0219169083151502179055507fae5184fba832cb2b1f702aca6117b8d265eaf03ad33eb133f19dde0f5920fa0860405160405180910390a16001905090565b600360009054906101000a900473ffffffffffffffffffffffffffffffffffffffff1673ffffffffffffffffffffffffffffffffffffffff163373ffffffffffffffffffffffffffffffffffffffff16141515610bc557600080fd5b600360159054906101000a900460ff16151515610be157600080fd5b6001600360156101000a81548160ff0219169083151502179055507f6985a02210a168e66602d3235cb6db0e70f92b3ba4d376a33c0f3d9434bff62560405160405180910390a1565b600360009054906101000a900473ffffffffffffffffffffffffffffffffffffffff1681565b6040805190810160405280600381526020017f484e59000000000000000000000000000000000000000000000000000000000081525081565b6000600360159054906101000a900460ff16151515610ca757600080fd5b610cb18383611623565b905092915050565b6000600360159054906101000a900460ff16151515610cd757600080fd5b610ce18383611842565b905092915050565b6000600260008473ffffffffffffffffffffffffffffffffffffffff1673ffffffffffffffffffffffffffffffffffffffff16815260200190815260200160002060008373ffffffffffffffffffffffffffffffffffffffff1673ffffffffffffffffffffffffffffffffffffffff16815260200190815260200160002054905092915050565b600360009054906101000a900473ffffffffffffffffffffffffffffffffffffffff1673ffffffffffffffffffffffffffffffffffffffff163373ffffffffffffffffffffffffffffffffffffffff16141515610dcc57600080fd5b600073ffffffffffffffffffffffffffffffffffffffff168173ffffffffffffffffffffffffffffffffffffffff1614151515610e0857600080fd5b8073ffffffffffffffffffffffffffffffffffffffff16600360009054906101000a900473ffffffffffffffffffffffffffffffffffffffff1673ffffffffffffffffffffffffffffffffffffffff167f8be0079c531659141344cd1fd0a4f28419497f9722a3daafe3b4186f6b6457e060405160405180910390a380600360006101000a81548173ffffffffffffffffffffffffffffffffffffffff021916908373ffffffffffffffffffffffffffffffffffffffff16021790555050565b600081600260003373ffffffffffffffffffffffffffffffffffffffff1673ffffffffffffffffffffffffffffffffffffffff16815260200190815260200160002060008573ffffffffffffffffffffffffffffffffffffffff1673ffffffffffffffffffffffffffffffffffffffff168152602001908152602001600020819055508273ffffffffffffffffffffffffffffffffffffffff163373ffffffffffffffffffffffffffffffffffffffff167f8c5be1e5ebec7d5bd14f71427d1e84f3dd0314c0f7b2291e5b200ac8c7c3b925846040518082815260200191505060405180910390a36001905092915050565b60008073ffffffffffffffffffffffffffffffffffffffff168373ffffffffffffffffffffffffffffffffffffffff1614151515610ff757600080fd5b6000808573ffffffffffffffffffffffffffffffffffffffff1673ffffffffffffffffffffffffffffffffffffffff16815260200190815260200160002054821115151561104457600080fd5b600260008573ffffffffffffffffffffffffffffffffffffffff1673ffffffffffffffffffffffffffffffffffffffff16815260200190815260200160002060003373ffffffffffffffffffffffffffffffffffffffff1673ffffffffffffffffffffffffffffffffffffffff1681526020019081526020016000205482111515156110cf57600080fd5b611120826000808773ffffffffffffffffffffffffffffffffffffffff1673ffffffffffffffffffffffffffffffffffffffff16815260200190815260200160002054611a3e90919063ffffffff16565b6000808673ffffffffffffffffffffffffffffffffffffffff1673ffffffffffffffffffffffffffffffffffffffff168152602001908152602001600020819055506111b3826000808673ffffffffffffffffffffffffffffffffffffffff1673ffffffffffffffffffffffffffffffffffffffff1681526020019081526020016000205461137490919063ffffffff16565b6000808573ffffffffffffffffffffffffffffffffffffffff1673ffffffffffffffffffffffffffffffffffffffff1681526020019081526020016000208190555061128482600260008773ffffffffffffffffffffffffffffffffffffffff1673ffffffffffffffffffffffffffffffffffffffff16815260200190815260200160002060003373ffffffffffffffffffffffffffffffffffffffff1673ffffffffffffffffffffffffffffffffffffffff16815260200190815260200160002054611a3e90919063ffffffff16565b600260008673ffffffffffffffffffffffffffffffffffffffff1673ffffffffffffffffffffffffffffffffffffffff16815260200190815260200160002060003373ffffffffffffffffffffffffffffffffffffffff1673ffffffffffffffffffffffffffffffffffffffff168152602001908152602001600020819055508273ffffffffffffffffffffffffffffffffffffffff168473ffffffffffffffffffffffffffffffffffffffff167fddf252ad1be2c89b69c2b068fc378daa952ba7f163c4a11628f55a4df523b3ef846040518082815260200191505060405180910390a3600190509392505050565b600080828401905083811015151561138857fe5b8091505092915050565b600080600260003373ffffffffffffffffffffffffffffffffffffffff1673ffffffffffffffffffffffffffffffffffffffff16815260200190815260200160002060008573ffffffffffffffffffffffffffffffffffffffff1673ffffffffffffffffffffffffffffffffffffffff168152602001908152602001600020549050808311156114a3576000600260003373ffffffffffffffffffffffffffffffffffffffff1673ffffffffffffffffffffffffffffffffffffffff16815260200190815260200160002060008673ffffffffffffffffffffffffffffffffffffffff1673ffffffffffffffffffffffffffffffffffffffff16815260200190815260200160002081905550611537565b6114b68382611a3e90919063ffffffff16565b600260003373ffffffffffffffffffffffffffffffffffffffff1673ffffffffffffffffffffffffffffffffffffffff16815260200190815260200160002060008673ffffffffffffffffffffffffffffffffffffffff1673ffffffffffffffffffffffffffffffffffffffff168152602001908152602001600020819055505b8373ffffffffffffffffffffffffffffffffffffffff163373ffffffffffffffffffffffffffffffffffffffff167f8c5be1e5ebec7d5bd14f71427d1e84f3dd0314c0f7b2291e5b200ac8c7c3b925600260003373ffffffffffffffffffffffffffffffffffffffff1673ffffffffffffffffffffffffffffffffffffffff16815260200190815260200160002060008873ffffffffffffffffffffffffffffffffffffffff1673ffffffffffffffffffffffffffffffffffffffff168152602001908152602001600020546040518082815260200191505060405180910390a3600191505092915050565b60008073ffffffffffffffffffffffffffffffffffffffff168373ffffffffffffffffffffffffffffffffffffffff161415151561166057600080fd5b6000803373ffffffffffffffffffffffffffffffffffffffff1673ffffffffffffffffffffffffffffffffffffffff1681526020019081526020016000205482111515156116ad57600080fd5b6116fe826000803373ffffffffffffffffffffffffffffffffffffffff1673ffffffffffffffffffffffffffffffffffffffff16815260200190815260200160002054611a3e90919063ffffffff16565b6000803373ffffffffffffffffffffffffffffffffffffffff1673ffffffffffffffffffffffffffffffffffffffff16815260200190815260200160002081905550611791826000808673ffffffffffffffffffffffffffffffffffffffff1673ffffffffffffffffffffffffffffffffffffffff1681526020019081526020016000205461137490919063ffffffff16565b6000808573ffffffffffffffffffffffffffffffffffffffff1673ffffffffffffffffffffffffffffffffffffffff168152602001908152602001600020819055508273ffffffffffffffffffffffffffffffffffffffff163373ffffffffffffffffffffffffffffffffffffffff167fddf252ad1be2c89b69c2b068fc378daa952ba7f163c4a11628f55a4df523b3ef846040518082815260200191505060405180910390a36001905092915050565b60006118d382600260003373ffffffffffffffffffffffffffffffffffffffff1673ffffffffffffffffffffffffffffffffffffffff16815260200190815260200160002060008673ffffffffffffffffffffffffffffffffffffffff1673ffffffffffffffffffffffffffffffffffffffff1681526020019081526020016000205461137490919063ffffffff16565b600260003373ffffffffffffffffffffffffffffffffffffffff1673ffffffffffffffffffffffffffffffffffffffff16815260200190815260200160002060008573ffffffffffffffffffffffffffffffffffffffff1673ffffffffffffffffffffffffffffffffffffffff168152602001908152602001600020819055508273ffffffffffffffffffffffffffffffffffffffff163373ffffffffffffffffffffffffffffffffffffffff167f8c5be1e5ebec7d5bd14f71427d1e84f3dd0314c0f7b2291e5b200ac8c7c3b925600260003373ffffffffffffffffffffffffffffffffffffffff1673ffffffffffffffffffffffffffffffffffffffff16815260200190815260200160002060008773ffffffffffffffffffffffffffffffffffffffff1673ffffffffffffffffffffffffffffffffffffffff168152602001908152602001600020546040518082815260200191505060405180910390a36001905092915050565b6000828211151515611a4c57fe5b8183039050929150505600a165627a7a72305820e667de02f84705b7d733f259cec38ae4b6f8b1955e0ae6d2b498cbe8f4e54d430029a165627a7a723058209c6c1a3052136f11c128c816eae8efc10e31f79d9d87b4c1423a6ea358a23a9e002960606040526000600360146101000a81548160ff0219169083151502179055506000600360156101000a81548160ff02191690831515021790555033600360006101000a81548173ffffffffffffffffffffffffffffffffffffffff021916908373ffffffffffffffffffffffffffffffffffffffff160217905550611a838061008a6000396000f300606060405260043610610107576000357c0100000000000000000000000000000000000000000000000000000000900463ffffffff16806305d2035b1461010c57806306fdde0314610139578063095ea7b3146101c757806318160ddd1461022157806323b872dd1461024a578063313ce567146102c35780633f4ba83a146102f257806340c10f19146103075780635c975abb14610361578063661884631461038e57806370a08231146103e85780637d64bcb4146104355780638456cb59146104625780638da5cb5b1461047757806395d89b41146104cc578063a9059cbb1461055a578063d73dd623146105b4578063dd62ed3e1461060e578063f2fde38b1461067a575b600080fd5b341561011757600080fd5b61011f6106b3565b604051808215151515815260200191505060405180910390f35b341561014457600080fd5b61014c6106c6565b6040518080602001828103825283818151815260200191508051906020019080838360005b8381101561018c578082015181840152602081019050610171565b50505050905090810190601f1680156101b95780820380516001836020036101000a031916815260200191505b509250505060405180910390f35b34156101d257600080fd5b610207600480803573ffffffffffffffffffffffffffffffffffffffff169060200190919080359060200190919050506106ff565b604051808215151515815260200191505060405180910390f35b341561022c57600080fd5b61023461072f565b6040518082815260200191505060405180910390f35b341561025557600080fd5b6102a9600480803573ffffffffffffffffffffffffffffffffffffffff1690602001909190803573ffffffffffffffffffffffffffffffffffffffff16906020019091908035906020019091905050610739565b604051808215151515815260200191505060405180910390f35b34156102ce57600080fd5b6102d661076b565b604051808260ff1660ff16815260200191505060405180910390f35b34156102fd57600080fd5b610305610770565b005b341561031257600080fd5b610347600480803573ffffffffffffffffffffffffffffffffffffffff16906020019091908035906020019091905050610830565b604051808215151515815260200191505060405180910390f35b341561036c57600080fd5b610374610a16565b604051808215151515815260200191505060405180910390f35b341561039957600080fd5b6103ce600480803573ffffffffffffffffffffffffffffffffffffffff16906020019091908035906020019091905050610a29565b604051808215151515815260200191505060405180910390f35b34156103f357600080fd5b61041f600480803573ffffffffffffffffffffffffffffffffffffffff16906020019091905050610a59565b6040518082815260200191505060405180910390f35b341561044057600080fd5b610448610aa1565b604051808215151515815260200191505060405180910390f35b341561046d57600080fd5b610475610b69565b005b341561048257600080fd5b61048a610c2a565b604051808273ffffffffffffffffffffffffffffffffffffffff1673ffffffffffffffffffffffffffffffffffffffff16815260200191505060405180910390f35b34156104d757600080fd5b6104df610c50565b6040518080602001828103825283818151815260200191508051906020019080838360005b8381101561051f578082015181840152602081019050610504565b50505050905090810190601f16801561054c5780820380516001836020036101000a031916815260200191505b509250505060405180910390f35b341561056557600080fd5b61059a600480803573ffffffffffffffffffffffffffffffffffffffff16906020019091908035906020019091905050610c89565b604051808215151515815260200191505060405180910390f35b34156105bf57600080fd5b6105f4600480803573ffffffffffffffffffffffffffffffffffffffff16906020019091908035906020019091905050610cb9565b604051808215151515815260200191505060405180910390f35b341561061957600080fd5b610664600480803573ffffffffffffffffffffffffffffffffffffffff1690602001909190803573ffffffffffffffffffffffffffffffffffffffff16906020019091905050610ce9565b6040518082815260200191505060405180910390f35b341561068557600080fd5b6106b1600480803573ffffffffffffffffffffffffffffffffffffffff16906020019091905050610d70565b005b600360149054906101000a900460ff1681565b6040805190810160405280601281526020017f42697446656e636520484e5920546f6b656e000000000000000000000000000081525081565b6000600360159054906101000a900460ff1615151561071d57600080fd5b6107278383610ec8565b905092915050565b6000600154905090565b6000600360159054906101000a900460ff1615151561075757600080fd5b610762848484610fba565b90509392505050565b601281565b600360009054906101000a900473ffffffffffffffffffffffffffffffffffffffff1673ffffffffffffffffffffffffffffffffffffffff163373ffffffffffffffffffffffffffffffffffffffff161415156107cc57600080fd5b600360159054906101000a900460ff1615156107e757600080fd5b6000600360156101000a81548160ff0219169083151502179055507f7805862f689e2f13df9f062ff482ad3ad112aca9e0847911ed832e158c525b3360405160405180910390a1565b6000600360009054906101000a900473ffffffffffffffffffffffffffffffffffffffff1673ffffffffffffffffffffffffffffffffffffffff163373ffffffffffffffffffffffffffffffffffffffff1614151561088e57600080fd5b600360149054906101000a900460ff161515156108aa57600080fd5b6108bf8260015461137490919063ffffffff16565b600181905550610916826000808673ffffffffffffffffffffffffffffffffffffffff1673ffffffffffffffffffffffffffffffffffffffff1681526020019081526020016000205461137490919063ffffffff16565b6000808573ffffffffffffffffffffffffffffffffffffffff1673ffffffffffffffffffffffffffffffffffffffff168152602001908152602001600020819055508273ffffffffffffffffffffffffffffffffffffffff167f0f6798a560793a54c3bcfe86a93cde1e73087d944c0ea20544137d4121396885836040518082815260200191505060405180910390a28273ffffffffffffffffffffffffffffffffffffffff16600073ffffffffffffffffffffffffffffffffffffffff167fddf252ad1be2c89b69c2b068fc378daa952ba7f163c4a11628f55a4df523b3ef846040518082815260200191505060405180910390a36001905092915050565b600360159054906101000a900460ff1681565b6000600360159054906101000a900460ff16151515610a4757600080fd5b610a518383611392565b905092915050565b60008060008373ffffffffffffffffffffffffffffffffffffffff1673ffffffffffffffffffffffffffffffffffffffff168152602001908152602001600020549050919050565b6000600360009054906101000a900473ffffffffffffffffffffffffffffffffffffffff1673ffffffffffffffffffffffffffffffffffffffff163373ffffffffffffffffffffffffffffffffffffffff16141515610aff57600080fd5b600360149054906101000a900460ff16151515610b1b57600080fd5b6001600360146101000a81548160ff0219169083151502179055507fae5184fba832cb2b1f702aca6117b8d265eaf03ad33eb133f19dde0f5920fa0860405160405180910390a16001905090565b600360009054906101000a900473ffffffffffffffffffffffffffffffffffffffff1673ffffffffffffffffffffffffffffffffffffffff163373ffffffffffffffffffffffffffffffffffffffff16141515610bc557600080fd5b600360159054906101000a900460ff16151515610be157600080fd5b6001600360156101000a81548160ff0219169083151502179055507f6985a02210a168e66602d3235cb6db0e70f92b3ba4d376a33c0f3d9434bff62560405160405180910390a1565b600360009054906101000a900473ffffffffffffffffffffffffffffffffffffffff1681565b6040805190810160405280600381526020017f484e59000000000000000000000000000000000000000000000000000000000081525081565b6000600360159054906101000a900460ff16151515610ca757600080fd5b610cb18383611623565b905092915050565b6000600360159054906101000a900460ff16151515610cd757600080fd5b610ce18383611842565b905092915050565b6000600260008473ffffffffffffffffffffffffffffffffffffffff1673ffffffffffffffffffffffffffffffffffffffff16815260200190815260200160002060008373ffffffffffffffffffffffffffffffffffffffff1673ffffffffffffffffffffffffffffffffffffffff16815260200190815260200160002054905092915050565b600360009054906101000a900473ffffffffffffffffffffffffffffffffffffffff1673ffffffffffffffffffffffffffffffffffffffff163373ffffffffffffffffffffffffffffffffffffffff16141515610dcc57600080fd5b600073ffffffffffffffffffffffffffffffffffffffff168173ffffffffffffffffffffffffffffffffffffffff1614151515610e0857600080fd5b8073ffffffffffffffffffffffffffffffffffffffff16600360009054906101000a900473ffffffffffffffffffffffffffffffffffffffff1673ffffffffffffffffffffffffffffffffffffffff167f8be0079c531659141344cd1fd0a4f28419497f9722a3daafe3b4186f6b6457e060405160405180910390a380600360006101000a81548173ffffffffffffffffffffffffffffffffffffffff021916908373ffffffffffffffffffffffffffffffffffffffff16021790555050565b600081600260003373ffffffffffffffffffffffffffffffffffffffff1673ffffffffffffffffffffffffffffffffffffffff16815260200190815260200160002060008573ffffffffffffffffffffffffffffffffffffffff1673ffffffffffffffffffffffffffffffffffffffff168152602001908152602001600020819055508273ffffffffffffffffffffffffffffffffffffffff163373ffffffffffffffffffffffffffffffffffffffff167f8c5be1e5ebec7d5bd14f71427d1e84f3dd0314c0f7b2291e5b200ac8c7c3b925846040518082815260200191505060405180910390a36001905092915050565b60008073ffffffffffffffffffffffffffffffffffffffff168373ffffffffffffffffffffffffffffffffffffffff1614151515610ff757600080fd5b6000808573ffffffffffffffffffffffffffffffffffffffff1673ffffffffffffffffffffffffffffffffffffffff16815260200190815260200160002054821115151561104457600080fd5b600260008573ffffffffffffffffffffffffffffffffffffffff1673ffffffffffffffffffffffffffffffffffffffff16815260200190815260200160002060003373ffffffffffffffffffffffffffffffffffffffff1673ffffffffffffffffffffffffffffffffffffffff1681526020019081526020016000205482111515156110cf57600080fd5b611120826000808773ffffffffffffffffffffffffffffffffffffffff1673ffffffffffffffffffffffffffffffffffffffff16815260200190815260200160002054611a3e90919063ffffffff16565b6000808673ffffffffffffffffffffffffffffffffffffffff1673ffffffffffffffffffffffffffffffffffffffff168152602001908152602001600020819055506111b3826000808673ffffffffffffffffffffffffffffffffffffffff1673ffffffffffffffffffffffffffffffffffffffff1681526020019081526020016000205461137490919063ffffffff16565b6000808573ffffffffffffffffffffffffffffffffffffffff1673ffffffffffffffffffffffffffffffffffffffff1681526020019081526020016000208190555061128482600260008773ffffffffffffffffffffffffffffffffffffffff1673ffffffffffffffffffffffffffffffffffffffff16815260200190815260200160002060003373ffffffffffffffffffffffffffffffffffffffff1673ffffffffffffffffffffffffffffffffffffffff16815260200190815260200160002054611a3e90919063ffffffff16565b600260008673ffffffffffffffffffffffffffffffffffffffff1673ffffffffffffffffffffffffffffffffffffffff16815260200190815260200160002060003373ffffffffffffffffffffffffffffffffffffffff1673ffffffffffffffffffffffffffffffffffffffff168152602001908152602001600020819055508273ffffffffffffffffffffffffffffffffffffffff168473ffffffffffffffffffffffffffffffffffffffff167fddf252ad1be2c89b69c2b068fc378daa952ba7f163c4a11628f55a4df523b3ef846040518082815260200191505060405180910390a3600190509392505050565b600080828401905083811015151561138857fe5b8091505092915050565b600080600260003373ffffffffffffffffffffffffffffffffffffffff1673ffffffffffffffffffffffffffffffffffffffff16815260200190815260200160002060008573ffffffffffffffffffffffffffffffffffffffff1673ffffffffffffffffffffffffffffffffffffffff168152602001908152602001600020549050808311156114a3576000600260003373ffffffffffffffffffffffffffffffffffffffff1673ffffffffffffffffffffffffffffffffffffffff16815260200190815260200160002060008673ffffffffffffffffffffffffffffffffffffffff1673ffffffffffffffffffffffffffffffffffffffff16815260200190815260200160002081905550611537565b6114b68382611a3e90919063ffffffff16565b600260003373ffffffffffffffffffffffffffffffffffffffff1673ffffffffffffffffffffffffffffffffffffffff16815260200190815260200160002060008673ffffffffffffffffffffffffffffffffffffffff1673ffffffffffffffffffffffffffffffffffffffff168152602001908152602001600020819055505b8373ffffffffffffffffffffffffffffffffffffffff163373ffffffffffffffffffffffffffffffffffffffff167f8c5be1e5ebec7d5bd14f71427d1e84f3dd0314c0f7b2291e5b200ac8c7c3b925600260003373ffffffffffffffffffffffffffffffffffffffff1673ffffffffffffffffffffffffffffffffffffffff16815260200190815260200160002060008873ffffffffffffffffffffffffffffffffffffffff1673ffffffffffffffffffffffffffffffffffffffff168152602001908152602001600020546040518082815260200191505060405180910390a3600191505092915050565b60008073ffffffffffffffffffffffffffffffffffffffff168373ffffffffffffffffffffffffffffffffffffffff161415151561166057600080fd5b6000803373ffffffffffffffffffffffffffffffffffffffff1673ffffffffffffffffffffffffffffffffffffffff1681526020019081526020016000205482111515156116ad57600080fd5b6116fe826000803373ffffffffffffffffffffffffffffffffffffffff1673ffffffffffffffffffffffffffffffffffffffff16815260200190815260200160002054611a3e90919063ffffffff16565b6000803373ffffffffffffffffffffffffffffffffffffffff1673ffffffffffffffffffffffffffffffffffffffff16815260200190815260200160002081905550611791826000808673ffffffffffffffffffffffffffffffffffffffff1673ffffffffffffffffffffffffffffffffffffffff1681526020019081526020016000205461137490919063ffffffff16565b6000808573ffffffffffffffffffffffffffffffffffffffff1673ffffffffffffffffffffffffffffffffffffffff168152602001908152602001600020819055508273ffffffffffffffffffffffffffffffffffffffff163373ffffffffffffffffffffffffffffffffffffffff167fddf252ad1be2c89b69c2b068fc378daa952ba7f163c4a11628f55a4df523b3ef846040518082815260200191505060405180910390a36001905092915050565b60006118d382600260003373ffffffffffffffffffffffffffffffffffffffff1673ffffffffffffffffffffffffffffffffffffffff16815260200190815260200160002060008673ffffffffffffffffffffffffffffffffffffffff1673ffffffffffffffffffffffffffffffffffffffff1681526020019081526020016000205461137490919063ffffffff16565b600260003373ffffffffffffffffffffffffffffffffffffffff1673ffffffffffffffffffffffffffffffffffffffff16815260200190815260200160002060008573ffffffffffffffffffffffffffffffffffffffff1673ffffffffffffffffffffffffffffffffffffffff168152602001908152602001600020819055508273ffffffffffffffffffffffffffffffffffffffff163373ffffffffffffffffffffffffffffffffffffffff167f8c5be1e5ebec7d5bd14f71427d1e84f3dd0314c0f7b2291e5b200ac8c7c3b925600260003373ffffffffffffffffffffffffffffffffffffffff1673ffffffffffffffffffffffffffffffffffffffff16815260200190815260200160002060008773ffffffffffffffffffffffffffffffffffffffff1673ffffffffffffffffffffffffffffffffffffffff168152602001908152602001600020546040518082815260200191505060405180910390a36001905092915050565b6000828211151515611a4c57fe5b8183039050929150505600a165627a7a72305820e667de02f84705b7d733f259cec38ae4b6f8b1955e0ae6d2b498cbe8f4e54d430029",
  "source": "pragma solidity ^0.4.17;\n\nimport \"../node_modules/zeppelin-solidity/contracts/crowdsale/CappedCrowdsale.sol\";\nimport \"../node_modules/zeppelin-solidity/contracts/crowdsale/FinalizableCrowdsale.sol\";\nimport \"./HNYToken.sol\";\n\n/**\n * @title The BitFence HNY Crowdsale contract\n * @dev The BitFence HNY Crowdsale contract\n * @dev inherits from CappedCrowdsale by Zeppelin\n */\n contract HNYCrowdsale is CappedCrowdsale, FinalizableCrowdsale {\n\n   uint256 public _startTime = 0;\n   uint256 public _endTime = 0;\n   uint256 public _rate = 0;\n   uint256 public _cap = 0;\n   address public _wallet = 0;\n\n   address public _team = 0;\n   address public _bounty = 0;\n   address public _reserve = 0;\n\n   uint256 public constant TOTAL_SHARE = 100;\n   uint256 public constant CROWDSALE_SHARE = 40;\n   uint256 public constant FOUNDATION_SHARE = 60;\n\n   // initial rate at which tokens are offered\n   uint256 public initialRate = 600;\n\n   // end rate at which tokens are offered\n   uint256 public endRate = 300;\n\n\n    // customize the rate for each whitelisted buyer\n    mapping (address => uint256) public buyerRate;\n\n  event WalletChange(address wallet);\n\n   event PreferentialRateChange(address indexed buyer, uint256 rate);\n\n   event InitialRateChange(uint256 rate);\n\n   event EndRateChange(uint256 rate);\n\n   function HNYCrowdsale() public\n     CappedCrowdsale(_cap)\n     Crowdsale(_startTime, _endTime, _rate, _wallet)\n   {\n      HNYToken(token).pause();\n   }\n\n   function createTokenContract() internal returns (MintableToken) {\n     return new HNYToken();\n   }\n\n   // low level token purchase function\n  function buyTokens(address beneficiary) public payable {\n    require(beneficiary != 0x0);\n    require(validPurchase());\n\n\n\n    uint256 weiAmount = msg.value;\n\n    // adjust rate\n    rate = getRate();\n\n    // calculate token amount to be created\n    uint256 tokens = weiAmount.mul(rate);\n    uint256 bountyAmount = weiAmount.mul(50);\n    uint256 teamAmount = weiAmount.mul(100);\n    uint256 reserveAmount = weiAmount.mul(50);\n\n    // update state\n    weiRaised = weiRaised.add(weiAmount);\n\n    token.mint(beneficiary, tokens);\n    token.mint(_bounty, bountyAmount);\n    token.mint(_team, teamAmount);\n    token.mint(_reserve, reserveAmount);\n\n    TokenPurchase(msg.sender, beneficiary, weiAmount, tokens);\n\n    forwardFunds();\n  }\n\n   // pause control\n    function unpauseToken() public onlyOwner {\n        HNYToken(token).unpause();\n    }\n\n    function pauseToken() public onlyOwner {\n        HNYToken(token).pause();\n    }\n\n    // fin\n    function finalization() internal  {\n       uint256 totalSupply = token.totalSupply();\n       uint256 finalSupply = TOTAL_SHARE.mul(totalSupply).div(CROWDSALE_SHARE);\n\n       // emit tokens for the foundation\n       token.mint(wallet, FOUNDATION_SHARE.mul(finalSupply).div(TOTAL_SHARE));\n\n       // NOTE: cannot call super here because it would finish minting and\n       // the continuous sale would not be able to proceed\n       //HNYToken(token).unpause();\n   }\n\n   // rate calculation fun\n   function getRate() internal returns(uint256) {\n       // some early buyers are offered a discount on the crowdsale price\n       if (buyerRate[msg.sender] != 0) {\n           return buyerRate[msg.sender];\n       }\n\n       // whitelisted buyers can purchase at preferential price before crowdsale ends\n    //   if (isWhitelisted(msg.sender)) {\n    //       return preferentialRate;\n    //   }\n\n       // otherwise compute the price for the auction\n       uint256 elapsed = block.number - startTime;\n       uint256 rateRange = initialRate - endRate;\n       uint256 blockRange = endTime - startTime;\n\n       return rate.sub(rateRange.mul(elapsed).div(blockRange));\n   }\n\n   // rate public functions\n   function setBuyerRate(address buyer, uint256 rate) onlyOwner public {\n     require(rate != 0);\n  //   require(block.number < startBlock);\n\n     buyerRate[buyer] = rate;\n\n     PreferentialRateChange(buyer, rate);\n }\n\n function setInitialRate(uint256 rate) onlyOwner public {\n     require(rate != 0);\n//     require(block.number < startDate);\n\n     initialRate = rate;\n\n     InitialRateChange(rate);\n }\n\n function setEndRate(uint256 rate) onlyOwner public {\n     require(rate != 0);\n  //   require(block.number < startDate);\n\n     endRate = rate;\n\n     EndRateChange(rate);\n }\n\n      function setWallet(address _wallet) onlyOwner public {\n         require(_wallet != 0x0);\n         wallet = _wallet;\n         WalletChange(_wallet);\n     }\n\n\n }\n",
  "sourcePath": "/home/valter/Projects/BitFence/bitfence-solidity/contracts/HNYCrowdsale.sol",
  "compiler": {
    "name": "solc",
    "version": "0.4.19+commit.c4cbbb05.Emscripten.clang"
  },
  "schemaVersion": "1.0.1",
  "updatedAt": "2018-02-13T04:19:41.530Z"
}